:1000000012C024C023C022C021C020C01FC01EC0F7
:100010001DC01CC01BC01AC019C018C017C016C014
:1000200015C014C013C011241FBECFE5D4E0DEBF3D
:10003000CDBF10E0A0E6B0E0E2EFF0E002C0059036
:100040000D92A636B107D9F717D051C0D9CFB99ABA
:1000500081E88FBD81E08EBD1BBC1ABC08958A303B
:1000600008F08FE085BB0895C09A0895C098089560
:1000700090E09BBD8ABD0895CF93DF9300D000D060
:1000800000D0CDB7DEB786E0E0E6F0E0DE01119605
:1000900001900D928A95E1F781E087BB8FE084BBE8
:1000A00013BAD5DFE3DF1BBC1ABC15BA80E010E041
:1000B00003B302950170081302C0802FF9CF01111C
:1000C000FCCF1F5F163009F410E0812FC8DF11113B
:1000D00002C0CCDF01C0C8DFE1E0F0E0EC0FFD1FA3
:1000E000E10FF11D208130E03BBD2ABDE6CFF89441
:0200F000FFCF40
:0600F20000326496C8FF15
:00000001FF
